:400000000080002011000000090500000905000008B5044B1A6803F53F5302331A6000F07BFA00BFFA46004010B5054C237833B9044B13B10448AFF300800123237010BDE6
:400040005881FF1F00000000F00F0000084B10B51BB108490848AFF300800848036803B910BD074B002BFBD0BDE81040184700BF000000005C81FF1FF00F0000C880FF1FE4
:400080000000000010B562B600F0BEFC00F0BCFA00F0A0FD114800F0C5FD0022104B1A7000F0C6FC00F0CCFD0E4BA0221A70C0225A710B4B1B78DBB2012BFAD106E006213D
:4000C000084800F0BBFA013464B200E00024012CF5DD0022024B1A70EBE700BFE90000009281FF1F8C81FF1F10B500F02FFD00222F4B1A702DE000222D4B5A7020E0C0B204
:4001000000F0AEFD00F0F2FC2A4B1860002801DA00221A60274B1B68B3F5803F03DB4FF6FF72244B1A60224991F90130224850F82340204A1268224440F8232001334B70F2
:400140001B4B93F901000328D9DD1A461B7801331370174B93F90030092BCCDD0022144B9A701BE0144850F82310144A82FB0142C917C1EBA20240F82320114951F823100A
:400180008A4204DD5A1CFF200E49885403E05A1C00200C4988540133054A9370044B93F90230032BDEDD0122074B1A7010BD00BF7481FF1FA481FF1F9481FF1F67666666F7
:4001C000CC80FF1F8C81FF1F9281FF1FFEE700BFF0B40022174611E050F82760F3B226F0FF0608E001EB420511F812406D78A5550132013BDBB2002BF4D10137162FEBD970
:40020000F0BC7047064B1B78DBB203F00701054A11701B09013213704422034B1A707047CF0100496E5800407658004008B50A46002100F0D4FE08BD08B500F0C5FE08BD39
:4002400038B50024324B1C80502202331A704FF49C7202331A8018232E4A137045F6BF51023211800232137004222B492B48FFF7E3FF02222A4B1A7008224FF040231A70A8
:40028000032103F500731970264B1B78DBB226490B70264B1A8041F25122023B1A8019250CE0234B1B7803F0010343EA440404F003044FF4F07000F04BFE013D0DB1032C8A
:4002C000EFD115B90320FFF781FF1A4B4FF480721A8007221A70002217490A704820023108701A700222033B1A7004220A331A70124A137843F007031370013A137843F0DE
:4003000001031370013A137843F08003137038BD804000408640004000020048004100400043004008010049A146004022420040254200400440004006400040A2430040FB
:40034000032816D810B44000C0B20A4B53F820101A1892F820400A7822430A700130C0B253F82020184490F8201013780B43137010BC7047F40F0000032818D810B440005E
:40038000C0B20B4B53F820101A1892F820400A7822EA04020A700130C0B253F82020184490F82010137823EA0103137010BC7047F40F0000012809D8054B03EB8002926A23
:4003C000184490F8301013780B431370704700BFF40F000001280AD8054B03EB8002926A184490F83010137823EA010313707047F40F000038B572B6334A137843F00403E9
:40040000137000240BE0314863001A19510001440A46098F506BFFF709FF0134E4B2082CF1D900240BE02949A3001819420088180622016FC06EFFF7FFFE0134E4B2002C34
:40044000F1D023494FF09040FFF7C2FE0A22214B1A7021490B7843F002030B7010310B7843F002030B701D4C237843F040032370A1F5863151390B7843F010030B701849C8
:400480001848FFF7D9FE082217491848FFF7D4FE082217491748FFF7CFFE174A137843F008031370154D61232B70FFF7C9FE81232B700122124B1A70FFF7A4FE0E2221464E
:4004C0001048FFF7B9FE38BDE8460040F40F00005C0000488358004003500140A0430040E4010048C0510040F001004812510040F8010048225100402243004000480040A0
:4005000004000840B043004008B500F031FD03680C2B00D1FEE7FEE708B5104E104D16E029686B68AC68002204E051F8040B43F8040B0432A242F8D1E868002203E000213D
:4005400043F8041B04328242F9D11035013E002EE6D100F013FDFFF795FDFEE7010000009010000008B5104A104B1A60104A136843F40073136000230AE0032B03D80D4A9B
:4005800052F8231000E00C490C4A42F8231001332F2BF2D90A4B1A780A4B1A70074A0A4B1A60FFF727FF08BD0004FA050CED00E014ED00E000000000090500000080FF1F3D
:4005C000BC760040C080FF1F08ED00E00622044B1A70472210331A70002251331A7070472A65004010B500F0BBFC0446054A137843F01003137000F03FFB204600F0B4FCE0
:4006000010BD00BF9B65004008B5054B1B7823B9FFF7DCFF0122024B1A70FFF7E3FF08BD7781FF1F034B1B7813F0040FFAD1024B187070476B6500404B650040084B1B78C0
:4006400033B97047305DFFF7EDFF0134E4B203E070B50D4606460024AC42F3D370BD00BF7781FF1F10B59DF80840012C51D1013809282ED8DFE800F0052D2D052D2D0F191E
:400680002D230F2B03D92548007840B222E02448007840B21EE00F2B03D92248007840B218E02148007840B214E00F2B03D91F48007840B20EE01E48007840B20AE00F2BB5
:4006C00003D91C48007840B204E01B48007840B200E0002001EB401101FB02F1C90B8AB20D2B0BD8C3F10E0289B211418AB2611E124800EB810101338B7005E0631E0F4988
:4007000001EB83030F219970013C0C4B23F8242010BD002000F0E2FB10BD00BF180100491C010049190100491D0100491A0100491E0100491B0100491F0100497C81FF1F8E
:40074000F8B5074600F00CFC06460D4D2B7843F003032B700B4C237843F0030323700A4B1F70032000F0BCFB2B7803F0FC032B70237803F0FC032370304600F0F5FBF8BDA3
:40078000F8460040F9460040925800400022324B1A7101285FD170B53822304B1A70042202331A70062201331A70002401331C7001331C703F2201331A7002331C70013388
:4007C0001C7001331C7001250A331D70502203F527631A700A2201331A702C2201331A7001331C70442203331A70482201331A7001331D7002331D70112201331A7019228C
:4008000001331A70972201331A705220FFF798FF5822134B1A7001331C70052605331E70022201331A7001331C7001331C70204600F040FA43F233320A4B1A602946304631
:4008400000F05CFA2946252000F0DCFA06491D2000F050FB70BD70477C81FF1F004E004094580040A881FF1F150B0000F0B583B0284D01272F70284E00247471102000F01E
:400880002BFA102000F0ACFA07211D2000F046FB0422224B1A7001331C7007331C70204A137843F0180313701E4B1C7003F2F5231C7001331C700A22A3F209331A70013345
:4008C0001C7002331C705B2205331A705E2201331A7004331C701422A3F68C231A70009710234FF4004248F6F0510220FFF7BAFE2B78013B06EB83039A780B4B1A702B78DA
:40090000013B36F82320094B1A802878FFF73EFF03B0F0BDDC80FF1F7C81FF1F96580040075B0040935800400E4E00400C4E004070B500F015FB06462A4B1B782A4B1A78A3
:4009400042F001021A701A7842F010021A7010331A7842F001021A701A7842F010021A70224D2B7843F002032B70214C237843F0020323701F4A137843F0030313700320D9
:4009800000F0AEFA2B7803F0FD032B70237803F0FD032370184A137843F0060313707A22164B1A70164A137843F0010313701032137843F0010313700F3A137843F00103E3
:4009C00013701032137843F0010313704FF000530C4A1360A2F5C0721360304600F0C4FA70BD00BFDC80FF1FAA430040F8460040F946004091580040775800408258004050
:400A0000A143004080E200E008B5084B9B794BB9064BDB7913F0FF0F01D1FFF727FF0122024B9A71FFF784FF08BD00BF7C81FF1F024A137843F0010313707047004E00401B
:400A4000024A137803F0FE0313707047004E0040094B1B7913F0FF0F03D0074B5B79DBB203E0064B1B7803F00103012B01D00028EED01846704700BF7C81FF1F014E004045
:400A8000154B1B7803F00303012B07D8134B1888023B1B889BB243EA004013E0022B0AD10E4B1888023B1B7843EA00430C4A107843EA002006E00B4B188883B2074A10884E
:400AC00043EA0040084B1B7913F0FF0F02D00022054B5A71704700BF144E0040124E0040114E0040104E00407C81FF1F10B5084A137843F004031370FFF79AFF0020FFF76E
:400B0000A7FFFFF7BDFF0446FFF79AFF204610BD014E0040704700BF084A137843F0010313701032137843F00103137002F64D32137843F001031370704700BFA3430040D6
:400B4000014B1870704700BF034F0040014B1878704700BF034F0040014B1880704700BF044F0040014B1880704700BF064F004008B5154A137803F00103137002321378F9
:400B800003F0FC031370114B1A7802F0CF021A701A7842F030021A701A7802F0F0021A701A7842F00F021A70094A137843F0010313706320FFF7D0FF6320FFF7D3FF082053
:400BC000FFF7BEFF08BD00BF004F00400B4F0040014F004008B5054B1B7823B9FFF7C8FF0122024B1A70FFF797FF08BD8881FF1F014B1B681864704708ED00E04001C0B2D0
:400C0000014B1870704700BF00E400E00122014B1A60704700E100E00122014B1A60704780E100E010B50446FFF7F6FF2046FFF7DFFF0720FFF7E2FFFFF7E8FF10BD00BFC9
:400C400010B5002404E02046FFF796FB0134E4B2032CF8D9FF22014B1A7010BDDD80FF1F10B50446FFF7ECFF2046FFF769FB014B1C7010BDDD80FF1F054A137843F00203CE
:400C800013701032137843F002031370704700BFA243004010B5002404E02046FFF79AFB0134E4B2012CF8D9FF22014B1A7010BDDE80FF1F10B50446FFF7ECFF2046FFF77B
:400CC00079FB014B1C7010BDDE80FF1F014B188880B2704780400040034B1A7800F0F80010431870704700BF82400040024B187800F00700704700BF8240004070B50546B3
:400D00000E46FFF7F3FF0446FFF7E0FFA84256D02B4B1B7803F0010294B900B185B938B9284B1D80284A137803F0BF03137070BD254A137843F040031370224B1D8070BD80
:400D400022B3002321490B7001240F310C7004310B700C390B7803F07F030B701A4B1B7813F0080F00D08DB9194B18800721013B1970164B1B7813F0010FFAD110490B788E
:400D800003F0FE030B700021104B19700C4B1B7813F0010F0DD00E4B1D800EB1032200E001220A4B1A70094B1B7813F0010FFAD170BD044B1D8002490B7813430B7070BD7F
:400DC000A243004080400040824000400140004002400040014B188880B2704700410040034B1A7800F0F80010431870704700BF02410040024B187800F00700704700BF8D
:400E00000241004070B505460E46FFF7F3FF0446FFF7E0FFA84256D02B4B1B7803F0010294B900B185B938B9284B1D80284A137803F0BF03137070BD254A137843F0400346
:400E40001370224B1D8070BD22B3002321490B70012413310C7004390B7008390B7803F07F030B701A4B1B7813F0080F00D08DB9194B18800721013B1970164B1B7813F082
:400E8000010FFAD110490B7803F0FE030B700021104B19700C4B1B7813F0010F0DD00E4B1D800EB1032200E001220A4B1A70094B1B7813F0010FFAD170BD044B1D80024948
:400EC0000B7813430B7070BDA14300400041004002410040014000400240004001BE704708B5034B1B7A00FB03F000F031F808BDE080FF1F70B504460E46074B1D681F2805
:400F000002D90020FFF7EAFF04F01F04103455F8240045F8246070BD08ED00E038B504460D46072902D90020FFF7D8FF1F2C02D90020FFF7D3FF04F01F0000F1604000F51F
:400F400064406D01EDB2057038BD00BF000000000230800803D000BF01380046FCD17047EFF3108072B6704780F31088704700BF014B1868704700BF5081FF1F0E4B70B5C7
:400F80001E460E4C0025E41AA410A54204D056F8253098470135F8E700F068F8084B094C1E46E41AA4100025A54204D056F8253098470135F8E770BD781000007810000088
:400FC000781000008010000010B5431E0A44914204D011F8014B03F8014FF8E710BD03460244934202D003F8011BFAE770470000000000002D510040005B00402D51004076
:40100000005B00402D510040005B00402D510040005B00402002100108084004035B00402443004040000000004F00400C00005100401000305100404000F0510040100089
:4010400000000140001000140140000800400140000A004C01400002005001402000000060520040DC01004806004300F8B500BFF8BC08BC9E4670474D0000006505000061
:40108000F8B500BFF8BC08BC9E46704729000000A0100000C880FF1F900000005800000000000000581B00006400000070170000581B000001FFFF000000E02EC05D00008F
:4010C0001800000000366E0100000000000000000000000000000000000000000000000000000000000000006A1000000000000000000000000000000000000000000000B9
:4011000000000000000000000000000000000000000000000000000000000000000000000000000000000000F080FF1F000000000000000000000000000000000000000021
:40114000000000000000000000000000000000000000000000000000000000000000000000000000000000000000000000000000000000000000000000000000000000006F
:40118000000000000000000000000000000000000000000000000000000000000000000000000000000000000000000000000000000000000000000000000000000000002F
:4011C00000000000000000000000000000000000000000000000000000000000000000000000000000000000000000000000000000000000000000000000000000000000EF
:4012000000000000000000000000000000000000000000000000000000000000000000000000000000000000000000000000000000000000000000000000000000000000AE
:020000040003F7
:0200000480007A
:40000000024F00400165004001050140010B01400115014004180140011901405B1A0140391B014002400140014101400542014001430140024401400145014004460140EF
:40004000014701400548014001490140014C0140064D0140025001400151014001200A368B0FE002E002EA1039803F4059045F012702042A06140C030E341003121C1628A7
:400080001E20200322042615300F36383A824004460449FF4A074BFF4C404D204EF04F05500858045A045C015D015F01604061A8624063208030820C83088440875388141B
:4000C0008C2C8E118F4091719306940996109880992C9B439E03A010A180A41CA622AB0CAD71AF0EB130B260B380B480B50FB61FB740B808B902BB20BE10BF45C043C105DA
:40010000C6ECC70BC81CC9FFCAFFCBFFCEF0CF44D00CD401D804D904DA04DB04DC11DD11DF01E6C0EA40EB02018002200582061809880A400C200D080E0210801210150150
:400140001640170819821A401D081E0A1F482460266027082D802F483502362037023D013F844040461047024B044D805180525054A0560857405C015E885F10802184804F
:4001800087108C10B702C0F5C2EDC43CCAB0CCA0CED0D0C1D210D6F0EA103280CC10A68012808701A680C410E0409F017C10DE019410450885089410D00194102701652001
:4001C0009F01C820D880B520941077108F10B410DE04E402E80810021C0200028080000040000000800040808000800000000000000B0B00000000000000000000007800C4
:400200002500180100000000000000000000000000000000000000000000000000000000000000000000000000000000000000000000000000000000000000000000000080
:40024000000000000000000000000000000000000000000000000000000000000000000000000000000000000000000000000000000000000000000000000000000000007E
:40028000000000000000000000000000000000000000000000000000000000000000000000000000000000000000000000000000000000000000000000000000000000003E
:4002C00000000000000000000000000000000000000000000000000000000000000000000000000000000000000000000000000000000000000000000000000000000000FE
:4003000000000000000000000000000000000000000000000000000000000000000000000000000000000000000000000000000000000000000000000000000000000000BD
:0200000490006A
:0400000000004005B7
:0200000490105A
:04000000BC90ACAF55
:0200000490303A
:020000002AA92B
:0200000490402A
:4000000000000000000000000000000000000000000000000000000000000000000000000000000000000000000000000000000000000000000000000000000000000000C0
:400040000000000000000000000000000000000000000000000000000000000000000000000000000000000000000000000000000000000000000000000000000000000080
:400080000000000000000000000000000000000000000000000000000000000000000000000000000000000000000000000000000000000000000000000000000000000040
:4000C0000000000000000000000000000000000000000000000000000000000000000000000000000000000000000000000000000000000000000000000000000000000000
:0200000490501A
:0C00000000012E16106900012E1C3B129E
:00000001FF