:400000000080002011000000E9050000E905000008B5044B1A6803F53F5302331A6000F0EBFA00BFFA46004010B5054C237833B9044B13B10448AFF300800123237010BDB6
:400040004881FF1F0000000060110000084B10B51BB108490848AFF300800848036803B910BD074B002BFBD0BDE81040184700BF000000004C81FF1F60110000C880FF1F20
:400080000000000010B562B600F02EFD00F02CFB00F0FAFF00F00EFE1B4800F033FE00241A4B1C701A4B1C7000F032FD00F038FE184BA0221A70C0225A72174BAA221A7068
:4000C000FF225A72154B1C70104B1B78DBB2012B0DD106E00A210F4800F020FB013464B200E00024012CF5DD0022084B1A70084B1B78DBB2012BE7D10A21074800F00EFB18
:400100000022034B1A70DFE7210100008F81FF1F8081FF1F8481FF1F9081FF1F8E81FF1F10B54B4C23680133236000F07FFD2368632B57DC002222712DE00022444B5A717D
:4001400020E0C0B200F0FCFD00F040FD414B1860002801DA00221A603E4B1B68B3F5803F03DB4FF6FF723B4B1A60394991F90530394850F82340374A1268224440F8232004
:4001800001334B71324B93F905000328D9DD1A461B79013313712E4B93F90430092BCCDD00222B4B9A7114E02B4850F823102B4A82FB0142C917C1EBA20240F823205900E0
:4001C0000131141226484454591C00F81120204A91711F4B93F90630032BE5DD0122214B1A7010BD642B31D1042000F0A9FD00F0EDFC1D4B1860002801DA00221A601A4B8D
:400200001B68B3F5803F03DB4FF6FF72164B1A60154B1B68154A13601912154A5170937000220B4B5A7106E0DA1C0020104988540133074A5371064B93F90530052BF3DD93
:4002400001220C4B1A700022014B1A6010BD00BF6481FF1FB081FF1FA081FF1F676666668481FF1F8F81FF1FB481FF1F9C81FF1F9081FF1F8081FF1FFEE700BFF0B4002245
:40028000174611E050F82760F3B226F0FF0608E001EB420511F812406D78A5550132013BDBB2002BF4D101371B2FEBD9F0BC70470A4B1B78DBB203F00701094A11701B090F
:4002C000013213700422074B1A70402258331A706622A3F2E2231A70704700BFCF0100496E580040005B004008B50A46002100F02EFF08BD08B500F01FFF08BD38B5002442
:40030000344B1C80502202331A704FF49C7202331A80182330490B7002310A802F4A13704BF67F31023211800232137004222C492C48FFF7DFFF02222B4B1A7008224FF08C
:4003400040231A70032103F500731970274B1B78DBB227490B70274B1A8041F25122023B1A8019250CE0244B1B7803F0010343EA440404F003044FF4F07000F0A1FE013D6F
:400380000DB1032CEFD115B90320FFF775FF1B4B4FF480721A8007221A70002218490A704820023108701A700222033B1A7004220A331A70134A137843F00F031370013AEF
:4003C000137843F001031370013A137843F08003137038BD80400040864000408A400040FC040048004100400043004008010049A146004022420040254200400440004020
:4004000006400040A2430040042816D810B44000C0B20A4B53F820101A1892F828400A7822430A700130C0B253F82020184490F8281013780B43137010BC7047641100008E
:40044000042818D810B44000C0B20B4B53F820101A1892F828400A7822EA04020A700130C0B253F82020184490F82810137823EA0103137010BC704764110000012809D87C
:40048000054B03EB8002526B184490F83C1013780B431370704700BF6411000001280AD8054B03EB8002526B184490F83C10137823EA0103137070476411000038B572B630
:4004C000374A137843F00403137000240CE0354863001A19510001440A46B1F84410106CFFF702FF0134E4B2082CF0D900240BE02C49A3001819420088180622C16F806F71
:40050000FFF7F8FE0134E4B2002CF1D026494FF09040FFF7B3FE0A25244B1D70244A137843F0020313701032137843F002031370204C237843F040032370A2F58632513AA1
:40054000137843F0100313702A461B491B48FFF7D1FE08221A491B48FFF7CCFE08221A491A48FFF7C7FE2A4619491A48FFF7C2FE194A137843F008031370184D61232B70B4
:40058000FFF7BCFE81232B700122154B1A70FFF78FFE0E2221461348FFF7ACFE38BD00BFE846004064110000700000488358004003500140A0430040D4040048C051004098
:4005C000E004004812510040E804004822510040F004004830510040224300400048004004000840B043004008B500F079FD03680C2B00D1FEE7FEE708B5104E104D16E0CE
:4006000029686B68AC68002204E051F8040B43F8040B0432A242F8D1E868002203E0002143F8041B04328242F9D11035013E002EE6D100F05BFDFFF725FDFEE70100000074
:400640000C12000008B5104A104B1A60104A136843F40073136000230AE0032B03D80D4A52F8231000E00C490C4A42F8231001332F2BF2D90A4B1A780A4B1A70074A0A4BD7
:400680001A60FFF71BFF08BD0004FA050CED00E014ED00E000000000E90500000080FF1FBC760040C080FF1F08ED00E00622044B1A70472210331A700022AF3B1A70704779
:4006C0002565004010B500F003FD0446054A137843F01003137000F03FFB204600F0FCFC10BD00BF9664004008B5054B1B7823B9FFF7DCFF0122024B1A70FFF7E3FF08BD6C
:400700006B81FF1F034B1B7813F0040FFAD1024B187070476664004046640040084B1B7833B97047305DFFF7EDFF0134E4B203E070B50D4606460024AC42F3D370BD00BF3F
:400740006B81FF1F10B59DF80840012C51D1013809282ED8DFE800F0052D2D052D2D0F192D230F2B03D92548007840B222E02448007840B21EE00F2B03D92248007840B274
:4007800018E02148007840B214E00F2B03D91F48007840B20EE01E48007840B20AE00F2B03D91C48007840B204E01B48007840B200E0002001EB401101FB02F1C90B8AB21A
:4007C0000D2B0BD8C3F10E0289B211418AB2611E124800EB810101338B7005E0631E0F4901EB83030F219970013C0C4B23F8242010BD002000F0E2FB10BD00BF18010049D8
:400800001C010049190100491D0100491A0100491E0100491B0100491F0100497081FF1FF8B5074600F054FC06460D4D2B7843F003032B700B4C237843F0030323700A4B75
:400840001F70032000F0BCFB2B7803F0FC032B70237803F0FC032370304600F03DFCF8BDF8460040F9460040925800400022324B1A7101285FD170B53822304B1A70042227
:4008800002331A70062201331A70002401331C7001331C703F2201331A7002331C7001331C7001331C7001250A331D70502203F527631A700D2201331A702B2201331A7029
:4008C00001331C70442203331A70482201331A7001331D7002331D70112201331A70192201331A70972201331A705320FFF798FF5822134B1A7001331C70052605331E70F3
:40090000022201331A7001331C7001331C70204600F040FA44F693520A4B1A602946304600F05CFA2946252000F0DCFA06491D2000F050FB70BD70477081FF1F004E0040EA
:4009400094580040BC81FF1FF50B0000F0B583B0284D01272F70284E00247471102000F02BFA102000F0ACFA07211D2000F046FB0422224B1A7001331C7007331C70204AAF
:40098000137843F0180313701E4B1C7003F2F5231C7001331C700A22A3F209331A7001331C7002331C705B2205331A705E2201331A7004331C701422A3F68C231A700097A6
:4009C00010234FF4004248F606510220FFF7BAFE2B78013B06EB83039A780B4B1A702B78013B36F82320094B1A802878FFF73EFF03B0F0BDCC80FF1F7081FF1F965800407A
:400A0000075B0040935800400E4E00400C4E004070B500F05DFB06462A4B1B782A4B1A7842F001021A701A7842F010021A7010331A7842F001021A701A7842F010021A70D8
:400A4000224D2B7843F002032B70214C237843F0020323701F4A137843F003031370032000F0AEFA2B7803F0FD032B70237803F0FD032370184A137843F0060313707A22B9
:400A8000164B1A70164A137843F0010313701032137843F0010313700F3A137843F0010313701032137843F0010313704FF000530C4A1360A2F5C0721360304600F00CFB06
:400AC00070BD00BFCC80FF1FAA430040F8460040F9460040915800407758004082580040A143004080E200E008B5084B9B794BB9064BDB7913F0FF0F01D1FFF727FF0122CF
:400B0000024B9A71FFF784FF08BD00BF7081FF1F024A137843F0010313707047004E0040024A137803F0FE0313707047004E0040094B1B7913F0FF0F03D0074B5B79DBB269
:400B400003E0064B1B7803F00103012B01D00028EED01846704700BF7081FF1F014E0040154B1B7803F00303012B07D8134B1888023B1B889BB243EA004013E0022B0AD1D8
:400B80000E4B1888023B1B7843EA00430C4A107843EA002006E00B4B188883B2074A108843EA0040084B1B7913F0FF0F02D00022054B5A71704700BF144E0040124E0040AB
:400BC000114E0040104E00407081FF1F10B5084A137843F004031370FFF79AFF0020FFF7A7FFFFF7BDFF0446FFF79AFF204610BD014E0040704700BF084A137843F0010328
:400C000013701032137843F00103137002F64D32137843F001031370704700BFA3430040014B1870704700BF034F0040014B1878704700BF034F0040014B1880704700BF38
:400C4000044F0040014B1880704700BF064F004008B5154A137803F0010313700232137803F0FC031370114B1A7802F0CF021A701A7842F030021A701A7802F0F0021A70E2
:400C80001A7842F00F021A70094A137843F0010313706320FFF7D0FF6320FFF7D3FF0820FFF7BEFF08BD00BF004F00400B4F0040014F004008B5054B1B7823B9FFF7C8FF59
:400CC0000122024B1A70FFF797FF08BD7C81FF1F014B1B681864704708ED00E04001C0B2014B1870704700BF00E400E00122014B1A60704700E100E00122014B1A607047F5
:400D000080E100E010B50446FFF7F6FF2046FFF7DFFF0720FFF7E2FFFFF7E8FF10BD00BF10B5002404E02046FFF78AFB0134E4B2042CF8D9FF22014B1A7010BDCD80FF1F2E
:400D400010B50446FFF7ECFF2046FFF75DFB014B1C7010BDCD80FF1F054A137843F0020313701032137843F002031370704700BFA243004010B5002404E02046FFF78EFB55
:400D80000134E4B2012CF8D9FF22014B1A7010BDCE80FF1F10B50446FFF7ECFF2046FFF76DFB014B1C7010BDCE80FF1F014B188880B2704780400040034B1A7800F0F800D8
:400DC00010431870704700BF82400040024B187800F00700704700BF8240004070B505460E46FFF7F3FF0446FFF7E0FFA84256D02B4B1B7803F0010294B900B185B938B94D
:400E0000284B1D80284A137803F0BF03137070BD254A137843F040031370224B1D8070BD22B3002321490B7001240F310C7004310B700C390B7803F07F030B701A4B1B78F8
:400E400013F0080F00D08DB9194B18800721013B1970164B1B7813F0010FFAD110490B7803F0FE030B700021104B19700C4B1B7813F0010F0DD00E4B1D800EB1032200E0A3
:400E800001220A4B1A70094B1B7813F0010FFAD170BD044B1D8002490B7813430B7070BDA243004080400040824000400140004002400040014B188880B270470041004006
:400EC000034B1A7800F0F80010431870704700BF02410040024B187800F00700704700BF0241004070B505460E46FFF7F3FF0446FFF7E0FFA84256D02B4B1B7803F00102AF
:400F000094B900B185B938B9284B1D80284A137803F0BF03137070BD254A137843F040031370224B1D8070BD22B3002321490B70012413310C7004390B7008390B7803F0B7
:400F40007F030B701A4B1B7813F0080F00D08DB9194B18800721013B1970164B1B7813F0010FFAD110490B7803F0FE030B700021104B19700C4B1B7813F0010F0DD00E4B0E
:400F80001D800EB1032200E001220A4B1A70094B1B7813F0010FFAD170BD044B1D8002490B7813430B7070BDA14300400041004002410040014000400240004001BE704783
:400FC00008B5034B1B7A00FB03F000F079F808BDD080FF1F70B504460E46074B1D681F2802D90020FFF7EAFF04F01F04103455F8240045F8246070BD08ED00E038B504464E
:401000000D46072902D90020FFF7D8FF1F2C02D90020FFF7D3FF04F01F0000F1604000F564406D01EDB2057038BD00BF7222074B1A702022FD3B1A7006229F331A70472283
:4010400010331A70002250331A7070478465004010B500F03DF804460A4A137843F020031370FD3A137843F010031370FF32137843F01003137000F015F8204600F02CF821
:4010800010BD00BF9465004008B5054B1B7823B9FFF7CCFF0122024B1A70FFF7D9FF08BD7D81FF1F054A137843F0040313701032137843F004031370704700BFA2430040C9
:4010C0000230800803D000BF01380046FCD17047EFF3108072B6704780F31088704700BF014B1868704700BF4081FF1F0E4B70B51E460E4C0025E41AA410A54204D056F892
:40110000253098470135F8E700F06EF8084B094C1E46E41AA4100025A54204D056F8253098470135F8E770BDF4110000F4110000F4110000FC11000010B5431E0A4491424B
:4011400004D011F8014B03F8014FF8E710BD03460244934202D003F8011BFAE770470000000000002D510040244300402D510040005B00402D510040005B00401D510040A5
:40118000585B00403D510040005B0040040020028008040404400000035B00402443004040000000004F00400C00005100401000405100403000F051004010000000014045
:4011C000001000140140000800400140000A004C01400002005001402000000060520040CC04004806004300F8B500BFF8BC08BC9E4670474D00000045060000F8B500BFE1
:40120000F8BC08BC9E4670472900000020120000C880FF1F8000000078000000000000000000000001FFFF000000E02EC05D00001800000000366E010000000000000000FB
:40124000000000000000000000000000000000000000000000000000E611000000000000000000000000000000000000000000000000000000000000000000000000000077
:40128000000000000000000000000000000000000000000000000000E080FF1F000000000000000000000000000000000000000000000000000000000000000000000000B0
:4012C00000000000000000000000000000000000000000000000000000000000000000000000000000000000000000000000000000000000000000000000000000000000EE
:4013000000000000000000000000000000000000000000000000000000000000000000000000000000000000000000000000000000000000000000000000000000000000AD
:40134000000000000000000000000000000000000000000000000000000000000000000000000000000000000000000000000000000000000000000000000000000000006D
:40138000000000000000000000000000000000000000000000000000000000000000000000000000000000000000000000000000000000000000000000000000000000002D
:020000040003F7
:0200000480007A
:40000000024F0040015200400264004002650040010501405C06014039070140010B01406214014049150140691601405017014001190140011B014002400140014101401B
:400040000542014003430140024401400145014004460140014701400548014008490140014C0140034D0140045001400151014001300A271C40860F87388472860FE00269
:40008000021006010D800E2A10541208131C19211B0E1C661D1C1E181F232080212123162406260828662A082B082D402F03300131603260331A34803580361E370F380836
:4000C00039023A803B883E143F104013410446BE470C481C49FF4AFF4BFF4EF04F44500C5401580459045A045B045C225D115F0166C06A406B028B018C0194019E01A30107
:40010000AE01B501B601B880BA02BF10C051C102C5EBC70CC813C9FFCAFFCBFFCEF0CF44D00CD418D804D904DA04DB04DC02DD22DF01E6C0EA40EB020302058806030740E8
:40014000080809800E81114015091640171019021B821C401D041E0723042642275929042A082B802C082D802E01364237103B203C804010420243184542461048504A0163
:400180004B015104566057085A025C105D015E045F4060026304C0B1C295C471CAB1CCB0CE14D0DCD208D6F1D80CE002003F013C03C204330518060C09080C1F0E200F048C
:4001C000100313E314011580180219C01C1C1D101E23200821FF24042544280C29E72B182D1C2E232FE1301031C03338340F362C371F3AA03B803E015602571358045904C3
:400200005B045C225D205F0180208409852A861087448A038C108D738E0C8F04940C96119708981C9A029D739F0CA010A414A755A903AB44B220B330B41FB540B70FB80284
:40024000B908BB80BE05BF14C002C604C9FFCA07CBFFCC40CD20CEF0CF05D008D804D904DA04DC11DD01DF01E040E1A8E240E320000401C204020514070109800A680C088D
:400280000E04102213121660180419A11D101F05218022092301254026A0272129AA2F283082312032043504368038683B013C803E0447205650572059016801691470B4C1
:4002C000731281088210844C87048A208B409042924C940495549602974299069A209D189E50A046A120A308A401A5C0A608A812C0FDC26FC43FCA6FCC5FCE5FD020D601E3
:40030000E402011C02080302068C088C09140A130E4010111109120E131016401811190C1A861B111C401F0321102240230C2420260328402910308A3230340F3640371F96
:4003400038083A223E404002470449FF4A074BFF4C404D204EF04F0550085401580459045A045B045C215D225F01604061A862406320808084228651870188E79001920E76
:400380009701984499029A31A4E7B007B101B280B460B502B618BE40BF11C023C104C206C401C6E0C70CC818C9FFCAFFCBFFCC62CDA0CEF0CF41D00CD804D904DA04DC0233
:4003C000DD02DF01E640E702E910EA30EB10ED10EE10EF12000201180504064107040A480D060E210F04110415011610171118311A481C801D461E042008210124022680AD
:400400002C082E01311032083682371038083C203D01401D430246084A08500453105408560159C05A045B045D805E205F097802790281208240854087049040910892011C
:40044000930195409602976299029A289B199C0A9D089E11A010A202A30AA408A5C2AB01C0FEC2FAC474CAA0CCB6CEA2D02FD204D6F0EC04EC04E4023280CC10A680128002
:400480008701A680C410E04072029F01DC207C08DE019C08450885089C08D0019C0827019F01AA02C820EE200B02630283018701C240D640E420E610A80874048404DE0404
:4004C00000060A0610061A06000200008080000040000000800040808000800000000000008B8B0000000400000000000000A400200040202000200004000000250018016E
:4005000000000000000000000000000000000000000000000000000000000000000000000000000000000000000000000000000000000000000000000000000000000000BB
:40054000000000000000000000000000000000000000000000000000000000000000000000000000000000000000000000000000000000000000000000000000000000007B
:40058000000000000000000000000000000000000000000000000000000000000000000000000000000000000000000000000000000000000000000000000000000000003B
:4005C00000000000000000000000000000000000000000000000000000000000000000000000000000000000000000000000000000000000000000000000000000000000FB
:0200000490006A
:0400000000004005B7
:0200000490105A
:04000000BC90ACAF55
:0200000490303A
:020000007FE897
:0200000490402A
:4000000000000000000000000000000000000000000000000000000000000000000000000000000000000000000000000000000000000000000000000000000000000000C0
:400040000000000000000000000000000000000000000000000000000000000000000000000000000000000000000000000000000000000000000000000000000000000080
:400080000000000000000000000000000000000000000000000000000000000000000000000000000000000000000000000000000000000000000000000000000000000040
:4000C0000000000000000000000000000000000000000000000000000000000000000000000000000000000000000000000000000000000000000000000000000000000000
:0200000490501A
:0C00000000012E16106900012E1D905109
:00000001FF